:1000000012C01FC01EC01DC01CC01BC01AC04CC0E7
:1000100018C017C016C015C014C081C012C011C0CE
:1000200010C00FC00EC011241FBECFEDCDBF10E019
:10003000A0E6B0E001C01D92AC36B107E1F7B6D042
:10004000C3C0DECF80E090E0B7D080936800089511
:100050008FEF87BB18BA11BA12BA089510926000D8
:10006000109261001092620010926300109264007E
:1000700010926500109266001092670010926B005B
:1000800032E030BF21E023BF29BF80E486BF08955E
:1000900019B812B81BB824E92AB986E083B91092BE
:1000A0006A001092690008951F920F920FB60F9286
:1000B00011242F933F934F938F939F93EF93FF932D
:1000C0008AB14CB181FD13C0842F90E0887F90707D
:1000D0002091680030E08217930731F44093690063
:1000E00031E030936A000FC010926A000CC090910A
:1000F0006A00992341F0E0916900F0E0E770F07048
:10010000E05AFF4F4083FF91EF919F918F914F9164
:100110003F912F910F900FBE0F901F9018951F9237
:100120000F920FB60F9211242F933F934F935F932B
:100130006F937F938F939F93AF93BF93EF93FF93AF
:1001400068B370916B00772309F46FEFE0E6F0E09D
:1001500080E090E021E030E05191571761F47F3F5B
:1001600051F0D901082E02C0AA0FBB1F0A94E2F772
:10017000AD014095642301968830910569F768BB0D
:1001800080916B008F5F80936B00FF91EF91BF9127
:10019000AF919F918F917F916F915F914F913F911F
:1001A0002F910F900FBE0F901F9018954BDF50DFCF
:1001B0006FDF54DF7894FFCFE199FECF1FBA8EBB7B
:0C01C000E09A99278DB30895F894FFCFC2
:00000001FF
